:1078000033C0000039C0000037C0000035C00000A0
:1078100033C0000031C000002FC000002DC00000A8
:107820002BC0000029C0000027C0000025C00000B8
:1078300023C0000021C000001FC000001DC00000C8
:107840001BC0000019C0000017C0000015C00000D8
:1078500013C0000011C000000FC000000DC00000E8
:107860000BC0000009C0000011241FBECFEFD8E0FC
:10787000DEBFCDBF57D29FC3C3CFCF93DF93DB0112
:10788000FA010097F9F420813181232BD9F4129663
:107890002C91129730E0322F2227318320831396C8
:1078A0004C911397242B318320832CE02C9324E9D3
:1078B00011962C93119712961C9212972CE3139603
:1078C0002C93139723E0FC0120935700E89507B60B
:1078D00000FCFDCF40E051E0EC01CA1BDB0B6C91DA
:1078E000FE01EA0FFB1F11962C91119730E0322F09
:1078F0002227260F311D090150935700E8951124C6
:107900004E5F1296403859F725E0FC01209357004E
:10791000E89507B600FCFDCF81E180935700E8951C
:10792000DF91CF910895CF93DF93EC0180EAEED001
:107930008D2F0ED18C2F0CD1F1D181EAE7D0DF91C0
:10794000CF9117C10F931F93CF93DF938C01EBDF80
:10795000C82FD0E0DC2FCC27C8010196E4DF9E01C0
:10796000282BC901DF91CF911F910F9108953F926C
:107970004F925F926F927F928F929F92AF92BF923F
:10798000CF92DF92EF92FF920F931F93CF93DF93EB
:10799000CDB7DEB7D4500FB6F894DEBF0FBECDBF63
:1079A00080E290E0CFDF7C01FE01319640E050E0C4
:1079B000BA016F01DB01CA0128E080FD09C000E2C5
:1079C000802E03E8902E08EBA02E0DEEB02E03C003
:1079D000812C912C5401B695A7959795879588256C
:1079E0009925AA25BB25215041F7B0958193919304
:1079F000A193B1934F5F5F4F6F4F7F4F411521E0D0
:107A0000520761057105B1F6412C512C320100E09D
:107A100010E047018FEF881A980A570191E0A91AE0
:107A2000B1083324339408151905D8F50E151F0530
:107A3000C0F5C801829686DF0A151B0509F4882760
:107A40009425452C562C672C7724F60124E0929F30
:107A5000E00DF11D11244081518162817381442622
:107A60005526662677268425452C562C672C7724A8
:107A7000F60194E0899FE00DF11D11248081918130
:107A8000A281B381482659266A267B26C8018F77B2
:107A90009927892B19F485B1832585B90E5F1F4F6E
:107AA000C2CF8CE190E04EDF6C01E12CF12C76012D
:107AB000DD24CC248EE190E045DFA0E0B0E0C82AD0
:107AC000D92AEA2AFB2A81E0C414D504E604F70483
:107AD00009F080E0DC5F0FB6F894DEBF0FBECDBFCB
:107AE000DF91CF911F910F91FF90EF90DF90CF909A
:107AF000BF90AF909F908F907F906F905F904F90CE
:107B00003F90089588E48093B80008951092BC00D7
:107B100094EA9093BC009091BC0097FFFCCF9091A9
:107B2000B900987F983011F081E008958093BB00F0
:107B300084E88093BC008091BC0087FFFCCF8091DB
:107B4000B900887F883111F0803471F780E00895A2
:107B50008093BB0084E88093BC008091BC0087FFC9
:107B6000FCCF9091B900987F81E0983209F480E0D1
:107B7000089584EC8093BC008091BC0087FFFCCF0B
:107B80008091BB00089584E88093BC008091BC0084
:107B900087FFFCCF8091BB000895DF92EF92FF92A8
:107BA0000F931F93CF93DF93D62E072F7A01AEDF6B
:107BB000182F882311F011E00FC0CD2DD02FEC0E1F
:107BC000FD1ECE15DF0529F08991C2DF8823C9F398
:107BD000F2CF84E98093BC00812FDF91CF911F9178
:107BE0000F91FF90EF90DF900895AF92BF92CF92E8
:107BF000DF92FF920F931F93CF93DF936B018A0164
:107C0000816084DFF82E811116C05601E8012197AA
:107C1000C5018C199D098C179D0728F4AADFF50171
:107C200081935F01F5CFCC0DDD1DADDF888384E945
:107C30008093BC0002C0FF24F3948F2DDF91CF917D
:107C40001F910F91FF90DF90CF90BF90AF9008955C
:107C5000DF92EF92FF920F931F93CF93DF93C62F84
:107C6000D42E052F790152DF182F882311F011E04F
:107C700011C08C2F6DDFCD2DD02FEC0EFD1ECE153B
:107C8000DF0529F0899164DF8823C9F3F0CF84E907
:107C90008093BC00812FDF91CF911F910F91FF90B6
:107CA000EF90DF900895AF92BF92CF92DF92FF9254
:107CB0000F931F93CF93DF93C82FD62F6A018901AB
:107CC00025DF882319F0FF24F3941DC08D2F40DF9A
:107CD0008C2F81601BDFF82E8111F5CF5601E80152
:107CE0002197C5018C199D098C179D0728F441DF48
:107CF000F50181935F01F5CFCC0DDD1D44DF888355
:107D000084E98093BC008F2DDF91CF911F910F915B
:107D1000FF90DF90CF90BF90AF90089584E980935B
:107D2000BC0008953F924F925F926F927F928F9224
:107D30009F92AF92BF92CF92DF92EF92FF920F93FA
:107D40001F93CF93DF93CDB7DEB7C258D1090FB6DB
:107D5000F894DEBF0FBECDBFA89514BE8091600021
:107D600088618093600010926000F894CBDE289ABE
:107D700081E084B9CF57DF4F19821882C158D040B3
:107D800086EF93E002D1C82ED12CE12CF12CFC2CF3
:107D9000EE24DD24CC2487EF93E0F7D0E82A88EFA7
:107DA00093E0F3D0182F89EF93E0EFD0C82AD12ABF
:107DB00007B600FCFDCF84E190E0C4DD2C01612C0E
:107DC000712C52019924882486E190E0BBDD2C01BE
:107DD000612C712C482859286A287B288FEFC816F7
:107DE000D806E806F80691F04C145D046E047F0492
:107DF00069F484E290E0A6DD982789279827CF5779
:107E0000DF4F99838883C158D04089C0B0DD882373
:107E100081F3E0E0F8E783E0E058F1098093570050
:107E2000E89507B600FCFDCF3097B1F7A89580E242
:107E300090E088DD4C01E12CF12C00E010E0CE0157
:107E400001966C0133243394E814F90460F557016A
:107E5000E894A7F8BB24E114F10499F0A114B1044B
:107E600081F4AE014F575F4FB601C8019695982F28
:107E700088279795879501DD85B1832585B90F5FA3
:107E80001F4FC70182965EDDF601EA0DFB1D908350
:107E9000F7013196EF77FF27EC0DFD1D808392E00F
:107EA000E90EF11CD1CF0F5F1F4F1695102F002741
:107EB00017950795C801B40154D0F601E81BF90BDA
:107EC000E058FF4F8FEF9F012C193D0920383105F5
:107ED00010F48193F8CFAE014F575F4FB601C80140
:107EE00080589109CADC289A672D77278827992717
:107EF00086EF93E052D0B3018827992787EF93E06C
:107F00004CD09927872D762D652D88EF93E045D0AD
:107F1000642D89EF93E041D007B600FCFDCFCF5729
:107F2000DF4FE881F981C158D040099580E090E0A9
:107F3000CE57DF4F0FB6F894DEBF0FBECDBFDF9137
:107F4000CF911F910F91FF90EF90DF90CF90BF9056
:107F5000AF909F908F907F906F905F904F903F90E9
:107F60000895AA1BBB1B51E107C0AA1FBB1FA61780
:107F7000B70710F0A61BB70B881F991F5A95A9F7D2
:107F800080959095BC01CD010895F999FECF92BDE1
:107F900081BDF89A992780B50895262FF999FECFCB
:107FA0001FBA92BD81BD20BD0FB6F894FA9AF99A16
:0A7FB0000FBE01960895F894FFCF6C
:040000030000780081
:00000001FF
