:10780000CDB7DEB76597DEBFCDBF112414B714BE68
:1078100011FD2FC013FF2DC0CE0101967C0187E022
:10782000F70111928A95E9F7CE010F969A83898321
:1078300007979C838B8380EA8D8347E250E0588BC7
:107840004F8728E230E03A8B298B86E290E09C8BD0
:107850008B8B60E16D8B598748873B872A879D8793
:107860008C8780E28E878FE089D1C701BAD0812FC3
:107870009AD185E08093810082E08093C00088E106
:107880008093C10086E08093C20080E18093C400B1
:107890008EE074D1259A86E020E33CEF91E03093AE
:1078A00085002093840096BBB09BFECF1D9AA895BF
:1078B0008150A9F700E010E023E0C22E53D18134BB
:1078C00081F450D1F82E60D1F2E8FF1202C082E0BC
:1078D00006C081E8F81202C086E001C083E03BD117
:1078E00055C0823411F484E103C0853419F485E075
:1078F00053D14CC0853541F435D1082F33D110E038
:10790000182B000F111F41C0863521F484E044D1AB
:1079100080E0E5CF8436E1F425D124D1D82E22D1E0
:10792000B82EE12CFF24F3941DD1F70181937F0140
:10793000DE12FACF29D1F5E4BF1201C0FFCFF80162
:10794000C7BEE8954D2DB80180E091E022D01EC061
:10795000843771F407D106D1D82E04D115D178011E
:10796000F70185917F01F7D0DA94D110F9CF0EC0DD
:10797000853739F409D18EE1EED085E9ECD08FE07E
:10798000AECF813511F488E0F9D0FED080E1E3D0AC
:1079900095CFCF93DF9307B600FCFDCFDC0121E04C
:1079A000EB01C81BD90B8C91FE01EA0FFB1F11964E
:1079B0003C91119790E0932B0C0127BFE89511247F
:1079C000425012964111EFCF85E0FB0187BFE89549
:1079D00007B600FCFDCF81E187BFE895DF91CF912D
:1079E00008952F923F924F925F926F927F928F9263
:1079F0009F92AF92BF92CF92DF92EF92FF920F933E
:107A00001F93CF93DF93CDB7DEB7C758D1090FB619
:107A1000F894DEBF0FBECDBF7C0178D1C7018FD1F6
:107A2000882309F47EC000E110E09E012F5F3F4FE4
:107A300040E060E070E0C70190D1882309F471C094
:107A40008981823409F06DC08A818F3409F069C060
:107A50008B818F3409F065C08C81843509F061C059
:107A60008D81843409F05DC08E81813409F059C064
:107A70008F81843509F055C08885813409F051C063
:107A800049845A846B847C84CD84DE841E0181E821
:107A9000280E311C86E0F10111928A95E9F7F10177
:107AA000F182E08280E091E09583848380E092E03F
:107AB00093838283812C912CC114D10411F156013E
:107AC000F1E8CF16D10418F080E8A82EB12C8E0171
:107AD0000F5F1F4F9501B301A201C10158D283E08E
:107AE000F40187BFE89540E8B401C80152DFCA1825
:107AF000DB084A0C5B1C611C711C8A0C9B1CA89542
:107B0000DBCFC957DF4F1882C758D04001E010E0E3
:107B10009E0129573F4F40E060E070E0C701A4D1CB
:107B2000FFCFC957DF4F0FB6F894DEBF0FBECDBFF2
:107B3000DF91CF911F910F91FF90EF90DF90CF9049
:107B4000BF90AF909F908F907F906F905F904F907D
:107B50003F902F9008959091C00095FFFCCF8093A7
:107B6000C60008958091C00087FFFCCF8091C000BF
:107B700084FD01C0A8958091C6000895E0E6F0E07C
:107B800098E1908380830895EDDF803219F088E0DA
:107B9000F5DFFFCF84E1DFCFCF93C82FE3DFC15004
:107BA000E9F7CF91F1CF282E80E0E8DFE0E0FF2772
:107BB0000994DC01ED91FC91119796810190F0817F
:107BC000E02D611103C08081982B03C02081909526
:107BD00092239083ED91FC9186810280F381E02DC8
:107BE0009081662311F0892B02C0809589238083C0
:107BF0000895DC011296ED91FC9113978681028025
:107C0000F381E02D9081662311F0892B02C08095CD
:107C1000892380830895EF92FF920F931F93CF9350
:107C2000DF93EC01E62E60E0E4DF08E010E080E89E
:107C3000F82E61E08E2D8F2109F460E0CE01B9DFCE
:107C400061E0CE01D6DF60E0CE01D3DFF6940150D3
:107C5000110979F761E0CE01ACDF61E0CE01C9DF47
:107C6000E881F981A481B5819C918681892311E005
:107C700009F010E060E0CE01BCDF812FDF91CF91F1
:107C80001F910F91FF90EF9008951F93CF93DF9373
:107C9000EC01162F61E0ADDF60E0CE018ADF612FDD
:107CA000CE01DF91CF911F91B6CFFF920F931F931B
:107CB000CF93DF938C01872F8770F801F480F2E077
:107CC0008F9FF00C1124C0E0D0E0F80185819681EF
:107CD000C817D9073CF46F2DC801D7DF811103C045
:107CE0002196F3CF80E0DF91CF911F910F91FF900C
:107CF0000895CF93DF93EC0160E05BDF61E0CE019C
:107D000078DF61E0CE01DF91CF9153CFCF93DF9346
:107D1000EC0161E04EDFAA81BB81ED91FC911197EE
:107D2000908116968C91892B808361E0CE0161DF72
:107D300084E690E09E838D83DF91CF9108951F9319
:107D4000CF93DF93EC016C81A0DF182FCE01D1DF40
:107D5000812FDF91CF911F9108958F929F92AF92C3
:107D6000BF92CF92DF92EF92FF920F931F93CF9328
:107D7000DF93EC016B01B42E790197DF882E6C2D17
:107D8000CE0149DF6B2DCE0146DF6C816160CE01F3
:107D90007CDF0150110917FD36C099249394011519
:107DA000110509F0912C88E0A82EB12C90E8C92E7D
:107DB000D12C61E0CE011DDFE881F981A481B5817C
:107DC0009C918681892309F0DC2860E0CE0111DFD7
:107DD000C69481E0A81AB10861F7692DCE01E9DEE9
:107DE00061E0CE0106DF60E0CE0103DF0115110581
:107DF00019F4CE017EDF03C061E0CE01DADEF701C7
:107E0000D1927F01C6CF882DDF91CF911F910F9125
:107E1000FF90EF90DF90CF90BF90AF909F908F90AA
:107E20000895CF92DF92EF92FF920F931F93CF931B
:107E3000DF936B01BA01A901E8019701FC01808180
:107E400091818BDF882339F0F60180819181C80F01
:107E5000D91FD183C083DF91CF911F910F91FF90E4
:107E6000EF90DF90CF900895BF92CF92DF92EF9284
:107E7000FF920F931F93CF93DF937C016B01B42E7E
:107E8000E90113DFD82E6C2DC701C5DE6B2DC701AC
:107E9000C2DE0C0F1D1FC017D10721F06991C70169
:107EA000BADEF9CFC70125DF8D2DDF91CF911F916C
:107EB0000F91FF90EF90DF90CF90BF9008952F9299
:107EC0003F924F925F926F927F928F929F92AF926A
:107ED000BF92CF92DF92EF92FF920F931F93CF93B7
:107EE000DF9300D000D0CDB7DEB74C011B012901D4
:107EF0003A011C830B835701DA82C982AB81BC81B2
:107F0000AB2B71F17727672D562D452DCA019201B4
:107F10003327C12CDD24D394C21AD30AAB81BC8190
:107F2000AC15BD0508F46D01D4011296ED91FC91DC
:107F300013978E179F07A0F475018601B101C40144
:107F4000E981FA810995AC0CBD1C8B819C818C194F
:107F50009D099C838B834C0C5D1C611C711CCECFD6
:107F60000F900F900F900F90DF91CF911F910F9175
:107F7000FF90EF90DF90CF90BF90AF909F908F9049
:107F80007F906F905F904F903F902F900895CF9289
:107F9000DF92EF92FF920F931F93CF93DF9300D066
:107FA000CDB7DEB71A821982E1E1CE2EEFE3DE2EE5
:107FB000780189019A01AB01BE016F5F7F4F7FDFBE
:107FC00089819A810F900F90DF91CF911F910F912E
:0A7FD000FF90EF90DF90CF9008952E
:027FFE00020679
:040000030000780081
:00000001FF
