:1078000033C0000039C0000037C0000035C00000A0
:1078100033C0000031C000002FC000002DC00000A8
:107820002BC0000029C0000027C0000025C00000B8
:1078300023C0000021C000001FC000001DC00000C8
:107840001BC0000019C0000017C0000015C00000D8
:1078500013C0000011C000000FC000000DC00000E8
:107860000BC0000009C0000011241FBECFEFD8E0FC
:10787000DEBFCDBF12D124C1C3CF80E28093B80058
:1078800008951092BC0094EA9093BC009091BC00C3
:1078900097FFFCCF9091B900987F983011F081E06C
:1078A00008958093BB0084E88093BC008091BC0065
:1078B00087FFFCCF8091B900887F883111F0803438
:1078C00071F780E008958093BB0084E88093BC004A
:1078D0008091BC0087FFFCCF9091B900987F81E038
:1078E000983209F480E0089584EC8093BC00809184
:1078F000BC0087FFFCCF8091BB00089584E8809393
:10790000BC008091BC0087FFFCCF8091BB00089534
:10791000DF92EF92FF920F931F93CF93DF93D62EB8
:10792000072F7A01AEDF182F882311F011E00FC066
:10793000CD2DD02FEC0EFD1ECE15DF0529F089913F
:10794000C2DF8823C9F3F2CF84E98093BC00812F82
:10795000DF91CF911F910F91FF90EF90DF900895ED
:10796000AF92BF92CF92DF92FF920F931F93CF936C
:10797000DF936B018A01816084DFF82E811116C0CC
:107980005601E8012197C5018C199D098C179D07A7
:1079900028F4AADFF50181935F01F5CFCC0DDD1D41
:1079A000ADDF888384E98093BC0002C0FF24F39498
:1079B0008F2DDF91CF911F910F91FF90DF90CF908E
:1079C000BF90AF900895DF92EF92FF920F931F93B5
:1079D000CF93DF93C62FD42E052F790152DF182FB6
:1079E000882311F011E011C08C2F6DDFCD2DD02F29
:1079F000EC0EFD1ECE15DF0529F0899164DF88238A
:107A0000C9F3F0CF84E98093BC00812FDF91CF913F
:107A10001F910F91FF90EF90DF900895AF92BF926A
:107A2000CF92DF92FF920F931F93CF93DF93C82FD4
:107A3000D62F6A01890125DF882319F0FF24F394EA
:107A40001DC08D2F40DF8C2F81601BDFF82E811130
:107A5000F5CF5601E8012197C5018C199D098C17B6
:107A60009D0728F441DFF50181935F01F5CFCC0D2F
:107A7000DD1D44DF888384E98093BC008F2DDF9176
:107A8000CF911F910F91FF90DF90CF90BF90AF905B
:107A9000089584E98093BC000895A89514BE809150
:107AA000600088618093600010926000F894E5DEC9
:107AB0002D9880E284B92D9AE0E0F0E00995FFCF9F
:047AC000F894FFCF68
:040000030000780081
:00000001FF
